:100000000C9462000C946A030C9443030C948A00D1
:100010000C948A000C948A000C948A000C948A0038
:100020000C948A000C948A000C948A000C948A0028
:100030000C948A000C948A000C948A000C948A0018
:100040000C94F9020C948A000C94B7030C9491035D
:100050000C948A000C948A000C948A000C948A00F8
:100060000C948A000C948A000000000024002700F1
:100070002A0000000000250028002B0000000008D6
:10008000000201000003040700000000000000005F
:1000900000000000230026002900040404040404D6
:1000A0000404020202020202030303030303010227
:1000B00004081020408001020408102001020408F6
:1000C0001020DD0511241FBECFEFD8E0DEBFCDBF6D
:1000D00011E0A0E0B1E0E2E8FEE002C005900D9280
:1000E000AA31B107D9F721E0AAE1B1E001C01D9220
:1000F000A73CB207E1F710E0C2E6D0E004C02197C8
:10010000FE010E943907C136D107C9F70E942E04AB
:100110000C943F070C940000833081F028F4813068
:1001200099F08230A9F008958730A9F08830C9F09D
:100130008430B1F4809180008F7D03C08091800075
:100140008F7780938000089584B58F7784BD08955C
:1001500084B58F7DFBCF8091B0008F778093B00006
:1001600008958091B0008F7DF9CFCF93DF93282F32
:1001700030E0F901E458FF4F8491F901E255FF4F57
:10018000D491F901E656FF4FC491CC23A1F081111F
:100190000E948C00EC2FF0E0EE0FFF1FE057FF4FA6
:1001A000A591B491EC91ED2381E090E009F480E019
:1001B000DF91CF91089580E090E0FACF1F93CF9325
:1001C000DF93282F30E0F901E458FF4F8491F901C3
:1001D000E255FF4FD491F901E656FF4FC491CC236D
:1001E000A9F0162F81110E948C00EC2FF0E0EE0F89
:1001F000FF1FEE58FF4FA591B4918FB7F894EC9183
:10020000111108C0D095DE23DC938FBFDF91CF9111
:100210001F910895DE2BF8CFCF93DF9390E0FC0180
:10022000E255FF4F249186569F4FFC01849188230D
:10023000D1F090E0880F991FFC01E859FF4FA5917C
:10024000B491FC01EE58FF4FC591D49161110EC0DD
:100250009FB7F8948C91E22FE0958E238C932881A0
:10026000E223E8839FBFDF91CF9108958FB7F89481
:10027000EC91E22BEC938FBFF6CF3FB7F8948091CF
:10028000C3019091C401A091C501B091C60126B5EA
:10029000A89B05C02F3F19F00196A11DB11D3FBFBE
:1002A000BA2FA92F982F8827BC01CD01620F711D8D
:1002B000811D911D42E0660F771F881F991F4A9587
:1002C000D1F708950895AF92BF92CF92DF92EF9247
:1002D000FF920F931F93CF93DF936C017B018B01F0
:1002E000040F151FEB015E01AE18BF08C017D10740
:1002F00059F06991D601ED91FC910190F081E02DCA
:10030000C6010995892B79F7C501DF91CF911F911E
:100310000F91FF90EF90DF90CF90BF90AF90089536
:10032000FC01538D448D252F30E0842F90E0821BFB
:10033000930B541710F0CF96089501970895FC0180
:10034000918D828D981761F0A28DAE0FBF2FB11DD8
:100350005D968C91928D9F5F9F73928F90E0089530
:100360008FEF9FEF0895FC01918D828D981731F0EA
:10037000828DE80FF11D858D90E008958FEF9FEF3E
:100380000895FC01918D228D892F90E0805C9F4F14
:10039000821B91098F73992708958AE191E00E9449
:1003A000C10121E0892B09F420E0822F089580E02B
:1003B00090E0892B29F00E94CD0181110C9400005E
:1003C0000895FC01A48DA80FB92FB11DA35ABF4FEA
:1003D0002C91848D90E001968F739927848FA68944
:1003E000B7892C93A089B1898C91837080648C9398
:1003F000938D848D981306C00288F389E02D808147
:100400008F7D80830895EF92FF920F931F93CF9378
:10041000DF93EC0181E0888F9B8D8C8D98131AC03F
:10042000E889F989808185FF15C09FB7F894EE8926
:10043000FF896083E889F989808183708064808383
:100440009FBF81E090E0DF91CF911F910F91FF90CE
:10045000EF900895F62E0B8D10E00F5F1F4F0F7376
:100460001127E02E8C8D8E110CC00FB607FCFACF31
:10047000E889F989808185FFF5CFCE010E94E101ED
:10048000F1CFEB8DEC0FFD2FF11DE35AFF4FF08202
:100490009FB7F8940B8FEA89FB8980818062CFCF68
:1004A000CF93DF93EC01888D8823B9F0AA89BB89AB
:1004B000E889F9898C9185FD03C0808186FD0DC096
:1004C0000FB607FCF7CF8C9185FFF2CF808185FFB7
:1004D000EDCFCE010E94E101E9CFDF91CF910895E8
:1004E0000F931F9390E0FC01E255FF4F6491FC01D4
:1004F000E656FF4FE491F0E0EE0FFF1FE057FF4F8D
:100500008591949100E412E42FE030E0462F0E94A0
:10051000E903611571058105910529F06F5F7F4F32
:100520008F4F9F4F9F701F910F910895CF93DF932F
:1005300089E00E94B500C7EBD1E088838AE00E9481
:10054000B500898382E00E94B5008A8383E00E941F
:10055000B5008B838BE00E94B5008C838CE00E94F9
:10056000B5008D8386E00E94B5008E8360E08DE04B
:100570000E94DE0060E08FE00E94DE008FE090E0ED
:100580000197F1F761E08DE00E94DE0061E08FE00D
:100590000E94DE0083E290E00197F1F760E08DE0D9
:1005A0000E94DE0060E08FE00E94DE008EE00E948C
:1005B0007002C4E0D1E00E94AB062DEC3CEC48E6B2
:1005C00052E40E940A060E947C067983688380E1D7
:1005D0000E9470020E94AB062DEC3CEC48E652E40F
:1005E0000E940A060E947C067B836A83DF91CF917A
:1005F00008951F920F920FB60F9211242F933F93DD
:100600008F939F93AF93BF938091BF019091C0014F
:10061000A091C101B091C2013091BE0123E0230F2E
:100620002D3758F50196A11DB11D2093BE01809371
:10063000BF019093C001A093C101B093C20180910A
:10064000C3019091C401A091C501B091C60101966A
:10065000A11DB11D8093C3019093C401A093C50156
:10066000B093C601BF91AF919F918F913F912F9110
:100670000F900FBE0F901F90189526E8230F02963B
:10068000A11DB11DD2CF1F920F920FB60F92112450
:100690002F933F934F935F936F937F938F939F938A
:1006A000AF93BF93EF93FF93E0910201F0910301A9
:1006B0000995FF91EF91BF91AF919F918F917F919C
:1006C0006F915F914F913F912F910F900FBE0F90BF
:1006D0001F9018951F920F920FB60F9211242F930F
:1006E0003F934F935F936F937F938F939F93AF93BA
:1006F000BF93EF93FF93E0910001F0910101099501
:10070000FF91EF91BF91AF919F918F917F916F91E9
:100710005F914F913F912F910F900FBE0F901F90BF
:1007200018951F920F920FB60F9211242F933F939B
:100730004F935F936F937F938F939F93AF93BF93E9
:10074000EF93FF938AE191E00E94E101FF91EF9125
:10075000BF91AF919F918F917F916F915F914F91D9
:100760003F912F910F900FBE0F901F9018951F92E1
:100770000F920FB60F9211242F938F939F93EF93A5
:10078000FF93E0912A01F0912B018081E0913001EB
:10079000F091310182FD1BC09081809133018F5F08
:1007A0008F7320913401821741F0E0913301F0E022
:1007B000E65EFE4F958F80933301FF91EF919F91FD
:1007C0008F912F910F900FBE0F901F9018958081E1
:1007D000F4CFCF92DF92EF92FF920F931F93E82F07
:1007E000F92F05C0015011092109310961F19081EA
:1007F00096239417B9F305C0015011092109310955
:1008000011F1908196239413F7CFC12CD12CE12CB8
:10081000F12C0AC08FEFC81AD80AE80AF80A0C159A
:100820001D052E053F0579F080818623841791F3FD
:100830006C2D7D2D8E2D9F2D1F910F91FF90EF9090
:10084000DF90CF90089560E070E080E090E01F912D
:100850000F91FF90EF90DF90CF900895789484B53A
:10086000826084BD84B5816084BD85B5826085BDAC
:1008700085B5816085BD80916E00816080936E003A
:10088000109281008091810082608093810080912C
:1008900081008160809381008091800081608093DD
:1008A00080008091B10084608093B1008091B0009D
:1008B00081608093B00080917A00846080937A0098
:1008C00080917A00826080937A0080917A008160C2
:1008D00080937A0080917A00806880937A001092E9
:1008E000C10060E08EE00E940C0161E08FE00E9498
:1008F0000C0160E080E10E940C0160E089E00E9450
:100900000C0160E08AE00E940C0161E087E10E9436
:100910000C0161E088E10E940C0161E089E10E9424
:100920000C0161E08AE10E940C0161E08BE10E9410
:100930000C0161E08CE10E940C0160E082E00E9409
:100940000C0160E083E00E940C0160E084E00E9402
:100950000C0160E085E00E940C0160E086E00E94EE
:100960000C0160E08BE00E940C0160E08CE00E94D2
:100970000C0161E08DE00E940C01E0912A01F091F0
:100980002B0182E08083E0912601F0912701108203
:10099000E0912801F09129018FEC808310923201BF
:1009A000E0912E01F0912F0186E08083E0912C01EF
:1009B000F0912D01808180618083E0912C01F09184
:1009C0002D01808188608083E0912C01F0912D01C0
:1009D000808180688083E0912C01F0912D018081DD
:1009E0008F7D808300E010E086E00E94B500892BB7
:1009F00009F0A2C08091BB01813009F05BC08091F9
:100A0000040190910501C29708F054C0809106013D
:100A100090910701C29708F04DC060E087E10E9405
:100A2000DE0060E088E10E94DE0060E089E10E9473
:100A3000DE0060E08AE10E94DE00C091BC016C2F04
:100A40008BE10E94DE0061E0C11160E08CE10E9458
:100A5000DE000E943D014B015C0188E0C82E87E06A
:100A6000D82EE12CF12C0E943D01681979098A09E0
:100A70009B09683E734081059105A8F321E0C21AE5
:100A8000D108E108F10888EE880E83E0981EA11CC9
:100A9000B11CC114D104E104F10429F701151105B9
:100AA00009F4A2CF0E94CD01882309F49DCF0E94B2
:100AB00000009ACF8091B8018130B1F4C091B701A4
:100AC0008091040190910501C29710F58091060173
:100AD00090910701C297E0F460E087E10E94DE0098
:100AE0006C2F88E10E94DE008091BA018130B1F65E
:100AF000C091B9018091040190910501C29788F4D9
:100B00008091060190910701C29758F460E00CC0F3
:100B100061E0C11160E087E10E94DE006C2F87E197
:100B2000E1CF61E0C111F2CF89E10E94DE006C2FBC
:100B30008AE10E94DE00B2CF8091B801813059F580
:100B4000C091B70161E0C11160E087E10E94DE0061
:100B50006C2F88E10E94DE008091BA01813009F596
:100B6000C091B90161E0C11160E089E10E94DE003D
:100B70006C2F8AE10E94DE008091BB018130B9F4C4
:100B8000C091BC0161E0C11160E08BE00E94DE0019
:100B90006C2F8CE0CECF60E087E10E94DE0060E049
:100BA000D8CF60E089E10E94DE0060E0E2CF60E043
:100BB0008BE00E94DE0060E0ECCFEAE1F1E013821E
:100BC000128288EE93E0A0E0B0E084839583A68350
:100BD000B7838CE091E09183808385EC90E09587EA
:100BE000848784EC90E09787868780EC90E0918BF7
:100BF000808B81EC90E0938B828B82EC90E0958BE4
:100C0000848B86EC90E0978B868B118E128E138EE0
:100C1000148E08950E941E060C94FF060E94F8068A
:100C200058F00E94F10640F029F45F3F29F00C943F
:100C3000E80651110C9433070C94EE060E9410073D
:100C400068F39923B1F3552391F3951B550BBB27FB
:100C5000AA2762177307840738F09F5F5F4F220F40
:100C6000331F441FAA1FA9F335D00E2E3AF0E0E837
:100C700032D091505040E695001CCAF72BD0FE2F81
:100C800029D0660F771F881FBB1F26173707480715
:100C9000AB07B0E809F0BB0B802DBF01FF279358CD
:100CA0005F4F3AF09E3F510578F00C94E8060C94A3
:100CB00033075F3FE4F3983ED4F3869577956795C5
:100CC000B795F7959F5FC9F7880F911D9695879502
:100CD00097F90895E1E0660F771F881FBB1F621721
:100CE00073078407BA0720F0621B730B840BBA0BDF
:100CF000EE1F88F7E09508950E94180788F09F5727
:100D000098F0B92F9927B751B0F0E1F0660F771F2F
:100D1000881F991F1AF0BA95C9F714C0B13091F025
:100D20000E943207B1E008950C943207672F782FA4
:100D30008827B85F39F0B93FCCF3869577956795EA
:100D4000B395D9F73EF490958095709561957F4F56
:100D50008F4F9F4F0895E89409C097FB3EF49095FC
:100D60008095709561957F4F8F4F9F4F9923A9F084
:100D7000F92F96E9BB279395F69587957795679513
:100D8000B795F111F8CFFAF4BB0F11F460FF1BC057
:100D90006F5F7F4F8F4F9F4F16C0882311F096E9EA
:100DA00011C0772321F09EE8872F762F05C0662398
:100DB00071F096E8862F70E060E02AF09A95660F51
:100DC000771F881FDAF7880F9695879597F908950A
:100DD00097F99F6780E870E060E008959FEF80ECEE
:100DE000089500240A941616170618060906089591
:100DF00000240A9412161306140605060895092EF7
:100E00000394000C11F4882352F0BB0F40F4BF2B65
:100E100011F460FF04C06F5F7F4F8F4F9F4F0895A5
:100E200057FD9058440F551F59F05F3F71F047959B
:100E3000880F97FB991F61F09F3F79F08795089580
:100E4000121613061406551FF2CF4695F1DF08C09F
:100E5000161617061806991FF1CF869571056105BC
:100E600008940895E894BB2766277727CB0197F964
:100E70000895EE0FFF1F0590F491E02D0994F8946A
:020E8000FFCFA2
:100E820062016201FFFFFFFF000000000302630135
:0A0E920090015002C1019F01B3015D
:00000001FF
